{
  "_format": "hh-sol-artifact-1",
  "contractName": "BillyBlocks",
  "sourceName": "contracts/BillyBlocks.sol",
  "abi": [
    {
      "inputs": [],
      "stateMutability": "nonpayable",
      "type": "constructor"
    },
    {
      "anonymous": false,
      "inputs": [
        {
          "indexed": true,
          "internalType": "address",
          "name": "owner",
          "type": "address"
        },
        {
          "indexed": true,
          "internalType": "address",
          "name": "approved",
          "type": "address"
        },
        {
          "indexed": true,
          "internalType": "uint256",
          "name": "tokenId",
          "type": "uint256"
        }
      ],
      "name": "Approval",
      "type": "event"
    },
    {
      "anonymous": false,
      "inputs": [
        {
          "indexed": true,
          "internalType": "address",
          "name": "owner",
          "type": "address"
        },
        {
          "indexed": true,
          "internalType": "address",
          "name": "operator",
          "type": "address"
        },
        {
          "indexed": false,
          "internalType": "bool",
          "name": "approved",
          "type": "bool"
        }
      ],
      "name": "ApprovalForAll",
      "type": "event"
    },
    {
      "anonymous": false,
      "inputs": [
        {
          "indexed": false,
          "internalType": "string",
          "name": "note",
          "type": "string"
        }
      ],
      "name": "CircuitBreakerEvent",
      "type": "event"
    },
    {
      "anonymous": false,
      "inputs": [
        {
          "indexed": true,
          "internalType": "address",
          "name": "_from",
          "type": "address"
        },
        {
          "indexed": false,
          "internalType": "uint256",
          "name": "_value",
          "type": "uint256"
        },
        {
          "indexed": false,
          "internalType": "string",
          "name": "note",
          "type": "string"
        }
      ],
      "name": "FallbackEvent",
      "type": "event"
    },
    {
      "anonymous": false,
      "inputs": [
        {
          "indexed": true,
          "internalType": "address",
          "name": "previousOwner",
          "type": "address"
        },
        {
          "indexed": true,
          "internalType": "address",
          "name": "newOwner",
          "type": "address"
        }
      ],
      "name": "OwnershipTransferred",
      "type": "event"
    },
    {
      "anonymous": false,
      "inputs": [
        {
          "indexed": false,
          "internalType": "address[]",
          "name": "array",
          "type": "address[]"
        }
      ],
      "name": "PixelMapAddress",
      "type": "event"
    },
    {
      "anonymous": false,
      "inputs": [
        {
          "indexed": false,
          "internalType": "string[]",
          "name": "array",
          "type": "string[]"
        }
      ],
      "name": "PixelMapColorHex",
      "type": "event"
    },
    {
      "anonymous": false,
      "inputs": [
        {
          "indexed": false,
          "internalType": "uint256[]",
          "name": "array",
          "type": "uint256[]"
        }
      ],
      "name": "PixelMapId",
      "type": "event"
    },
    {
      "anonymous": false,
      "inputs": [
        {
          "indexed": false,
          "internalType": "string[]",
          "name": "array",
          "type": "string[]"
        }
      ],
      "name": "PixelMapIpfs",
      "type": "event"
    },
    {
      "anonymous": false,
      "inputs": [
        {
          "indexed": true,
          "internalType": "address",
          "name": "from",
          "type": "address"
        },
        {
          "indexed": true,
          "internalType": "address",
          "name": "to",
          "type": "address"
        },
        {
          "indexed": true,
          "internalType": "uint256",
          "name": "tokenId",
          "type": "uint256"
        }
      ],
      "name": "Transfer",
      "type": "event"
    },
    {
      "stateMutability": "payable",
      "type": "fallback"
    },
    {
      "inputs": [
        {
          "internalType": "address",
          "name": "to",
          "type": "address"
        },
        {
          "internalType": "uint256",
          "name": "tokenId",
          "type": "uint256"
        }
      ],
      "name": "approve",
      "outputs": [],
      "stateMutability": "nonpayable",
      "type": "function"
    },
    {
      "inputs": [
        {
          "internalType": "address",
          "name": "owner",
          "type": "address"
        }
      ],
      "name": "balanceOf",
      "outputs": [
        {
          "internalType": "uint256",
          "name": "",
          "type": "uint256"
        }
      ],
      "stateMutability": "view",
      "type": "function"
    },
    {
      "inputs": [
        {
          "internalType": "uint256[]",
          "name": "listOfIds",
          "type": "uint256[]"
        },
        {
          "internalType": "string[]",
          "name": "listOfHexStrings",
          "type": "string[]"
        },
        {
          "internalType": "string[]",
          "name": "listOfNewIpfs",
          "type": "string[]"
        }
      ],
      "name": "batchEditMetadata",
      "outputs": [],
      "stateMutability": "nonpayable",
      "type": "function"
    },
    {
      "inputs": [
        {
          "internalType": "address",
          "name": "recipient",
          "type": "address"
        },
        {
          "internalType": "string",
          "name": "uri",
          "type": "string"
        },
        {
          "internalType": "string",
          "name": "colorHex",
          "type": "string"
        },
        {
          "internalType": "uint256",
          "name": "amount",
          "type": "uint256"
        }
      ],
      "name": "batchMintNFT",
      "outputs": [],
      "stateMutability": "nonpayable",
      "type": "function"
    },
    {
      "inputs": [
        {
          "internalType": "address",
          "name": "from",
          "type": "address"
        },
        {
          "internalType": "address",
          "name": "to",
          "type": "address"
        },
        {
          "internalType": "uint256[]",
          "name": "tokenIds",
          "type": "uint256[]"
        }
      ],
      "name": "batchTransfer",
      "outputs": [],
      "stateMutability": "nonpayable",
      "type": "function"
    },
    {
      "inputs": [],
      "name": "circuitBreaker",
      "outputs": [],
      "stateMutability": "nonpayable",
      "type": "function"
    },
    {
      "inputs": [],
      "name": "contractPaused",
      "outputs": [
        {
          "internalType": "bool",
          "name": "",
          "type": "bool"
        }
      ],
      "stateMutability": "view",
      "type": "function"
    },
    {
      "inputs": [],
      "name": "getAllPixelId",
      "outputs": [
        {
          "internalType": "uint256[]",
          "name": "",
          "type": "uint256[]"
        }
      ],
      "stateMutability": "view",
      "type": "function"
    },
    {
      "inputs": [],
      "name": "getAllPixels",
      "outputs": [
        {
          "internalType": "uint256[]",
          "name": "",
          "type": "uint256[]"
        },
        {
          "internalType": "address[]",
          "name": "",
          "type": "address[]"
        },
        {
          "internalType": "string[]",
          "name": "",
          "type": "string[]"
        },
        {
          "internalType": "string[]",
          "name": "",
          "type": "string[]"
        }
      ],
      "stateMutability": "view",
      "type": "function"
    },
    {
      "inputs": [
        {
          "internalType": "uint256",
          "name": "tokenId",
          "type": "uint256"
        }
      ],
      "name": "getApproved",
      "outputs": [
        {
          "internalType": "address",
          "name": "",
          "type": "address"
        }
      ],
      "stateMutability": "view",
      "type": "function"
    },
    {
      "inputs": [],
      "name": "getMapSize",
      "outputs": [
        {
          "internalType": "uint256",
          "name": "",
          "type": "uint256"
        }
      ],
      "stateMutability": "view",
      "type": "function"
    },
    {
      "inputs": [
        {
          "internalType": "uint256",
          "name": "id",
          "type": "uint256"
        }
      ],
      "name": "getOnePixel",
      "outputs": [
        {
          "internalType": "uint256",
          "name": "",
          "type": "uint256"
        },
        {
          "internalType": "address",
          "name": "",
          "type": "address"
        },
        {
          "internalType": "string",
          "name": "",
          "type": "string"
        },
        {
          "internalType": "string",
          "name": "",
          "type": "string"
        }
      ],
      "stateMutability": "view",
      "type": "function"
    },
    {
      "inputs": [
        {
          "internalType": "address",
          "name": "owner",
          "type": "address"
        },
        {
          "internalType": "address",
          "name": "operator",
          "type": "address"
        }
      ],
      "name": "isApprovedForAll",
      "outputs": [
        {
          "internalType": "bool",
          "name": "",
          "type": "bool"
        }
      ],
      "stateMutability": "view",
      "type": "function"
    },
    {
      "inputs": [],
      "name": "lastTokenId",
      "outputs": [
        {
          "internalType": "uint256",
          "name": "",
          "type": "uint256"
        }
      ],
      "stateMutability": "view",
      "type": "function"
    },
    {
      "inputs": [],
      "name": "name",
      "outputs": [
        {
          "internalType": "string",
          "name": "",
          "type": "string"
        }
      ],
      "stateMutability": "view",
      "type": "function"
    },
    {
      "inputs": [],
      "name": "owner",
      "outputs": [
        {
          "internalType": "address",
          "name": "",
          "type": "address"
        }
      ],
      "stateMutability": "view",
      "type": "function"
    },
    {
      "inputs": [
        {
          "internalType": "uint256",
          "name": "tokenId",
          "type": "uint256"
        }
      ],
      "name": "ownerOf",
      "outputs": [
        {
          "internalType": "address",
          "name": "",
          "type": "address"
        }
      ],
      "stateMutability": "view",
      "type": "function"
    },
    {
      "inputs": [],
      "name": "renounceOwnership",
      "outputs": [],
      "stateMutability": "nonpayable",
      "type": "function"
    },
    {
      "inputs": [
        {
          "internalType": "address",
          "name": "from",
          "type": "address"
        },
        {
          "internalType": "address",
          "name": "to",
          "type": "address"
        },
        {
          "internalType": "uint256",
          "name": "tokenId",
          "type": "uint256"
        }
      ],
      "name": "safeTransferFrom",
      "outputs": [],
      "stateMutability": "nonpayable",
      "type": "function"
    },
    {
      "inputs": [
        {
          "internalType": "address",
          "name": "from",
          "type": "address"
        },
        {
          "internalType": "address",
          "name": "to",
          "type": "address"
        },
        {
          "internalType": "uint256",
          "name": "tokenId",
          "type": "uint256"
        },
        {
          "internalType": "bytes",
          "name": "_data",
          "type": "bytes"
        }
      ],
      "name": "safeTransferFrom",
      "outputs": [],
      "stateMutability": "nonpayable",
      "type": "function"
    },
    {
      "inputs": [
        {
          "internalType": "address",
          "name": "operator",
          "type": "address"
        },
        {
          "internalType": "bool",
          "name": "approved",
          "type": "bool"
        }
      ],
      "name": "setApprovalForAll",
      "outputs": [],
      "stateMutability": "nonpayable",
      "type": "function"
    },
    {
      "inputs": [
        {
          "internalType": "bytes4",
          "name": "interfaceId",
          "type": "bytes4"
        }
      ],
      "name": "supportsInterface",
      "outputs": [
        {
          "internalType": "bool",
          "name": "",
          "type": "bool"
        }
      ],
      "stateMutability": "view",
      "type": "function"
    },
    {
      "inputs": [],
      "name": "symbol",
      "outputs": [
        {
          "internalType": "string",
          "name": "",
          "type": "string"
        }
      ],
      "stateMutability": "view",
      "type": "function"
    },
    {
      "inputs": [
        {
          "internalType": "uint256",
          "name": "tokenId",
          "type": "uint256"
        }
      ],
      "name": "tokenURI",
      "outputs": [
        {
          "internalType": "string",
          "name": "",
          "type": "string"
        }
      ],
      "stateMutability": "view",
      "type": "function"
    },
    {
      "inputs": [
        {
          "internalType": "address",
          "name": "from",
          "type": "address"
        },
        {
          "internalType": "address",
          "name": "to",
          "type": "address"
        },
        {
          "internalType": "uint256",
          "name": "tokenId",
          "type": "uint256"
        }
      ],
      "name": "transferFrom",
      "outputs": [],
      "stateMutability": "nonpayable",
      "type": "function"
    },
    {
      "inputs": [
        {
          "internalType": "address",
          "name": "newOwner",
          "type": "address"
        }
      ],
      "name": "transferOwnership",
      "outputs": [],
      "stateMutability": "nonpayable",
      "type": "function"
    },
    {
      "inputs": [
        {
          "internalType": "address",
          "name": "recipient",
          "type": "address"
        },
        {
          "internalType": "string",
          "name": "uri",
          "type": "string"
        },
        {
          "internalType": "string",
          "name": "colorHex",
          "type": "string"
        },
        {
          "internalType": "uint256",
          "name": "amount",
          "type": "uint256"
        }
      ],
      "name": "userBatchMintNFT",
      "outputs": [],
      "stateMutability": "payable",
      "type": "function"
    },
    {
      "stateMutability": "payable",
      "type": "receive"
    }
  ],
  "bytecode": "0x60806040526000600c60006101000a81548160ff0219169083151502179055503480156200002c57600080fd5b506040518060400160405280600b81526020017f42696c6c79426c6f636b730000000000000000000000000000000000000000008152506040518060400160405280600581526020017f42494c4c590000000000000000000000000000000000000000000000000000008152508160009080519060200190620000b1929190620001c9565b508060019080519060200190620000ca929190620001c9565b505050620000ed620000e1620000fb60201b60201c565b6200010360201b60201c565b6001600b81905550620002dd565b600033905090565b6000600760009054906101000a900473ffffffffffffffffffffffffffffffffffffffff16905081600760006101000a81548173ffffffffffffffffffffffffffffffffffffffff021916908373ffffffffffffffffffffffffffffffffffffffff1602179055508173ffffffffffffffffffffffffffffffffffffffff168173ffffffffffffffffffffffffffffffffffffffff167f8be0079c531659141344cd1fd0a4f28419497f9722a3daafe3b4186f6b6457e060405160405180910390a35050565b828054620001d790620002a8565b90600052602060002090601f016020900481019282620001fb576000855562000247565b82601f106200021657805160ff191683800117855562000247565b8280016001018555821562000247579182015b828111156200024657825182559160200191906001019062000229565b5b5090506200025691906200025a565b5090565b5b80821115620002755760008160009055506001016200025b565b5090565b7f4e487b7100000000000000000000000000000000000000000000000000000000600052602260045260246000fd5b60006002820490506001821680620002c157607f821691505b602082108103620002d757620002d662000279565b5b50919050565b61551a80620002ed6000396000f3fe6080604052600436106101a05760003560e01c8063715018a6116100ec578063a22cb4651161008a578063d3b43cb711610064578063d3b43cb71461065d578063e985e9c514610686578063f2fde38b146106c3578063f84ddf0b146106ec576101fc565b8063a22cb465146105ce578063b88d4fde146105f7578063c87b56dd14610620576101fc565b80638a67456a116100c65780638a67456a146105245780638da5cb5b1461054f57806395d89b411461057a5780639a3a33f1146105a5576101fc565b8063715018a6146104a2578063758b7b8c146104b957806378fbd88d146104e4576101fc565b80633593cebc116101595780634df33abe116101335780634df33abe146103de5780636352211e146103fa57806370a082311461043757806370d72d6314610474576101fc565b80633593cebc146103615780633706e7e81461038a57806342842e0e146103b5576101fc565b806301ffc9a71461025357806306fdde0314610290578063081812fc146102bb578063095ea7b3146102f857806316efd9411461032157806323b872dd14610338576101fc565b366101fc576101ad610717565b73ffffffffffffffffffffffffffffffffffffffff167f388ab026afa782863d2f16430ba99e31c984170b5a45d4bd17e9f66117f1fde9346040516101f29190613404565b60405180910390a2005b610204610717565b73ffffffffffffffffffffffffffffffffffffffff167f388ab026afa782863d2f16430ba99e31c984170b5a45d4bd17e9f66117f1fde9346040516102499190613404565b60405180910390a2005b34801561025f57600080fd5b5061027a6004803603810190610275919061349e565b61071f565b60405161028791906134e6565b60405180910390f35b34801561029c57600080fd5b506102a5610801565b6040516102b29190613589565b60405180910390f35b3480156102c757600080fd5b506102e260048036038101906102dd91906135d7565b610893565b6040516102ef9190613645565b60405180910390f35b34801561030457600080fd5b5061031f600480360381019061031a919061368c565b610918565b005b34801561032d57600080fd5b50610336610a2f565b005b34801561034457600080fd5b5061035f600480360381019061035a91906136cc565b610b6e565b005b34801561036d57600080fd5b5061038860048036038101906103839190613867565b610e1e565b005b34801561039657600080fd5b5061039f610e78565b6040516103ac91906138d6565b60405180910390f35b3480156103c157600080fd5b506103dc60048036038101906103d791906136cc565b610efa565b005b6103f860048036038101906103f391906139a6565b610f1a565b005b34801561040657600080fd5b50610421600480360381019061041c91906135d7565b611200565b60405161042e9190613645565b60405180910390f35b34801561044357600080fd5b5061045e60048036038101906104599190613a45565b6112b1565b60405161046b91906138d6565b60405180910390f35b34801561048057600080fd5b50610489611368565b6040516104999493929190613cfa565b60405180910390f35b3480156104ae57600080fd5b506104b76116da565b005b3480156104c557600080fd5b506104ce611762565b6040516104db9190613d5b565b60405180910390f35b3480156104f057600080fd5b5061050b600480360381019061050691906135d7565b6117bd565b60405161051b9493929190613d7d565b60405180910390f35b34801561053057600080fd5b5061053961186d565b60405161054691906134e6565b60405180910390f35b34801561055b57600080fd5b50610564611880565b6040516105719190613645565b60405180910390f35b34801561058657600080fd5b5061058f6118aa565b60405161059c9190613589565b60405180910390f35b3480156105b157600080fd5b506105cc60048036038101906105c79190613eb1565b61193c565b005b3480156105da57600080fd5b506105f560048036038101906105f09190613f84565b611cf9565b005b34801561060357600080fd5b5061061e60048036038101906106199190614065565b611d0f565b005b34801561062c57600080fd5b50610647600480360381019061064291906135d7565b611fc1565b6040516106549190613589565b60405180910390f35b34801561066957600080fd5b50610684600480360381019061067f91906139a6565b612112565b005b34801561069257600080fd5b506106ad60048036038101906106a891906140e8565b6123c8565b6040516106ba91906134e6565b60405180910390f35b3480156106cf57600080fd5b506106ea60048036038101906106e59190613a45565b61245c565b005b3480156106f857600080fd5b50610701612553565b60405161070e91906138d6565b60405180910390f35b600033905090565b60007f80ac58cd000000000000000000000000000000000000000000000000000000007bffffffffffffffffffffffffffffffffffffffffffffffffffffffff1916827bffffffffffffffffffffffffffffffffffffffffffffffffffffffff191614806107ea57507f5b5e139f000000000000000000000000000000000000000000000000000000007bffffffffffffffffffffffffffffffffffffffffffffffffffffffff1916827bffffffffffffffffffffffffffffffffffffffffffffffffffffffff1916145b806107fa57506107f982612559565b5b9050919050565b60606000805461081090614157565b80601f016020809104026020016040519081016040528092919081815260200182805461083c90614157565b80156108895780601f1061085e57610100808354040283529160200191610889565b820191906000526020600020905b81548152906001019060200180831161086c57829003601f168201915b5050505050905090565b600061089e826125c3565b6108dd576040517f08c379a00000000000000000000000000000000000000000000000000000000081526004016108d4906141fa565b60405180910390fd5b6004600083815260200190815260200160002060009054906101000a900473ffffffffffffffffffffffffffffffffffffffff169050919050565b600061092382611200565b90508073ffffffffffffffffffffffffffffffffffffffff168373ffffffffffffffffffffffffffffffffffffffff1603610993576040517f08c379a000000000000000000000000000000000000000000000000000000000815260040161098a9061428c565b60405180910390fd5b8073ffffffffffffffffffffffffffffffffffffffff166109b2610717565b73ffffffffffffffffffffffffffffffffffffffff1614806109e157506109e0816109db610717565b6123c8565b5b610a20576040517f08c379a0000000000000000000000000000000000000000000000000000000008152600401610a179061431e565b60405180910390fd5b610a2a838361262f565b505050565b610a37610717565b73ffffffffffffffffffffffffffffffffffffffff16610a55611880565b73ffffffffffffffffffffffffffffffffffffffff1614610aab576040517f08c379a0000000000000000000000000000000000000000000000000000000008152600401610aa29061438a565b60405180910390fd5b60001515600c60009054906101000a900460ff16151503610b1b576001600c60006101000a81548160ff0219169083151502179055507fd7747d2b03a87014664137ef006032e95f7ebeae66402ade7fb09ec270a4da0d604051610b0e906143f6565b60405180910390a1610b6c565b6000600c60006101000a81548160ff0219169083151502179055507fd7747d2b03a87014664137ef006032e95f7ebeae66402ade7fb09ec270a4da0d604051610b6390614462565b60405180910390a15b565b610b7f610b79610717565b826126e8565b610bbe576040517f08c379a0000000000000000000000000000000000000000000000000000000008152600401610bb5906144f4565b60405180910390fd5b6000600873__$b934d7a2ff225b6f1b2c7d937c74accd16$__6382e930c59091846040518363ffffffff1660e01b8152600401610bfc92919061452a565b600060405180830381865af4158015610c19573d6000803e3d6000fd5b505050506040513d6000823e3d601f19601f82011682018060405250810190610c4291906146a7565b9050610c4c6132ad565b8281600001818152505083816020019073ffffffffffffffffffffffffffffffffffffffff16908173ffffffffffffffffffffffffffffffffffffffff16815250508160400151816040018190525081606001518160600181905250600873__$b934d7a2ff225b6f1b2c7d937c74accd16$__6397e4b531909185846040518463ffffffff1660e01b8152600401610ce6939291906147c2565b60006040518083038186803b158015610cfe57600080fd5b505af4158015610d12573d6000803e3d6000fd5b50505050610d218585856127c6565b600080600080610d2f611368565b93509350935093507f7b01d274ab7dfabdb6861009ab11db6dbdb90b234b9700455f102167cc23857484604051610d669190613d5b565b60405180910390a17f18fe5671cbd203456560569df08e5b522f42274186d227d73075b536b44c191f83604051610d9d9190614800565b60405180910390a17fc2a08ceed543b5e0780a37b50db54f6f236196f36c61dc89efeea12ae74a505482604051610dd49190614822565b60405180910390a17f61e6202ae9d2a653cefd53cea58300fae45dce6c6516c61297659273ac425be881604051610e0b9190614822565b60405180910390a1505050505050505050565b60005b8151811015610e7257610e5f8484848481518110610e4257610e41614844565b5b602002602001015160405180602001604052806000815250611d0f565b8080610e6a906148a2565b915050610e21565b50505050565b6000600873__$b934d7a2ff225b6f1b2c7d937c74accd16$__638015672090916040518263ffffffff1660e01b8152600401610eb491906148ea565b602060405180830381865af4158015610ed1573d6000803e3d6000fd5b505050506040513d601f19601f82011682018060405250810190610ef59190614905565b905090565b610f1583838360405180602001604052806000815250611d0f565b505050565b60001515600c60009054906101000a900460ff16151514610f3a57600080fd5b633b9aca00600182610f4c9190614932565b610f569190614932565b341015610f98576040517f08c379a0000000000000000000000000000000000000000000000000000000008152600401610f8f906149fe565b60405180910390fd5b610fa0611880565b73ffffffffffffffffffffffffffffffffffffffff166108fc349081150290604051600060405180830381858888f19350505050158015610fe5573d6000803e3d6000fd5b5060005b8181101561110357610ffd85600b54612a21565b611009600b5485612bee565b6110116132ad565b600b5481600001818152505085816020019073ffffffffffffffffffffffffffffffffffffffff16908173ffffffffffffffffffffffffffffffffffffffff1681525050838160400181905250848160600181905250600873__$b934d7a2ff225b6f1b2c7d937c74accd16$__6397e4b5319091600b54846040518463ffffffff1660e01b81526004016110a7939291906147c2565b60006040518083038186803b1580156110bf57600080fd5b505af41580156110d3573d6000803e3d6000fd5b50505050600b60008154809291906110ea906148a2565b91905055505080806110fb906148a2565b915050610fe9565b50600080600080611112611368565b93509350935093507f7b01d274ab7dfabdb6861009ab11db6dbdb90b234b9700455f102167cc238574846040516111499190613d5b565b60405180910390a17f18fe5671cbd203456560569df08e5b522f42274186d227d73075b536b44c191f836040516111809190614800565b60405180910390a17fc2a08ceed543b5e0780a37b50db54f6f236196f36c61dc89efeea12ae74a5054826040516111b79190614822565b60405180910390a17f61e6202ae9d2a653cefd53cea58300fae45dce6c6516c61297659273ac425be8816040516111ee9190614822565b60405180910390a15050505050505050565b6000806002600084815260200190815260200160002060009054906101000a900473ffffffffffffffffffffffffffffffffffffffff169050600073ffffffffffffffffffffffffffffffffffffffff168173ffffffffffffffffffffffffffffffffffffffff16036112a8576040517f08c379a000000000000000000000000000000000000000000000000000000000815260040161129f90614a90565b60405180910390fd5b80915050919050565b60008073ffffffffffffffffffffffffffffffffffffffff168273ffffffffffffffffffffffffffffffffffffffff1603611321576040517f08c379a000000000000000000000000000000000000000000000000000000000815260040161131890614b22565b60405180910390fd5b600360008373ffffffffffffffffffffffffffffffffffffffff1673ffffffffffffffffffffffffffffffffffffffff168152602001908152602001600020549050919050565b6060806060806000600873__$b934d7a2ff225b6f1b2c7d937c74accd16$__638015672090916040518263ffffffff1660e01b81526004016113aa91906148ea565b602060405180830381865af41580156113c7573d6000803e3d6000fd5b505050506040513d601f19601f820116820180604052508101906113eb9190614905565b905060008167ffffffffffffffff81111561140957611408613724565b5b6040519080825280602002602001820160405280156114375781602001602082028036833780820191505090505b50905060008267ffffffffffffffff81111561145657611455613724565b5b6040519080825280602002602001820160405280156114845781602001602082028036833780820191505090505b50905060008367ffffffffffffffff8111156114a3576114a2613724565b5b6040519080825280602002602001820160405280156114d657816020015b60608152602001906001900390816114c15790505b50905060008467ffffffffffffffff8111156114f5576114f4613724565b5b60405190808252806020026020018201604052801561152857816020015b60608152602001906001900390816115135790505b5090506000600190505b600b548110156116c2576000600873__$b934d7a2ff225b6f1b2c7d937c74accd16$__6382e930c59091846040518363ffffffff1660e01b815260040161157a92919061452a565b600060405180830381865af4158015611597573d6000803e3d6000fd5b505050506040513d6000823e3d601f19601f820116820180604052508101906115c091906146a7565b90508060000151866001846115d59190614b42565b815181106115e6576115e5614844565b5b6020026020010181815250508060200151856001846116059190614b42565b8151811061161657611615614844565b5b602002602001019073ffffffffffffffffffffffffffffffffffffffff16908173ffffffffffffffffffffffffffffffffffffffff16815250508060400151846001846116639190614b42565b8151811061167457611673614844565b5b60200260200101819052508060600151836001846116929190614b42565b815181106116a3576116a2614844565b5b60200260200101819052505080806116ba906148a2565b915050611532565b50838383839850985098509850505050505090919293565b6116e2610717565b73ffffffffffffffffffffffffffffffffffffffff16611700611880565b73ffffffffffffffffffffffffffffffffffffffff1614611756576040517f08c379a000000000000000000000000000000000000000000000000000000000815260040161174d9061438a565b60405180910390fd5b6117606000612c62565b565b606060086000018054806020026020016040519081016040528092919081815260200182805480156117b357602002820191906000526020600020905b81548152602001906001019080831161179f575b5050505050905090565b6000806060806000600873__$b934d7a2ff225b6f1b2c7d937c74accd16$__6382e930c59091886040518363ffffffff1660e01b815260040161180192919061452a565b600060405180830381865af415801561181e573d6000803e3d6000fd5b505050506040513d6000823e3d601f19601f8201168201806040525081019061184791906146a7565b905080600001518160200151826040015183606001519450945094509450509193509193565b600c60009054906101000a900460ff1681565b6000600760009054906101000a900473ffffffffffffffffffffffffffffffffffffffff16905090565b6060600180546118b990614157565b80601f01602080910402602001604051908101604052809291908181526020018280546118e590614157565b80156119325780601f1061190757610100808354040283529160200191611932565b820191906000526020600020905b81548152906001019060200180831161191557829003601f168201915b5050505050905090565b8151835114801561194e575080518351145b61198d576040517f08c379a000000000000000000000000000000000000000000000000000000000815260040161198490614c0e565b60405180910390fd5b60005b8351811015611bfd576000600873__$b934d7a2ff225b6f1b2c7d937c74accd16$__6382e930c590918785815181106119cc576119cb614844565b5b60200260200101516040518363ffffffff1660e01b81526004016119f192919061452a565b600060405180830381865af4158015611a0e573d6000803e3d6000fd5b505050506040513d6000823e3d601f19601f82011682018060405250810190611a3791906146a7565b9050806020015173ffffffffffffffffffffffffffffffffffffffff16611a5c610717565b73ffffffffffffffffffffffffffffffffffffffff1614611ab2576040517f08c379a0000000000000000000000000000000000000000000000000000000008152600401611aa990614cc6565b60405180910390fd5b611aba6132ad565b858381518110611acd57611acc614844565b5b60200260200101518160000181815250508160200151816020019073ffffffffffffffffffffffffffffffffffffffff16908173ffffffffffffffffffffffffffffffffffffffff1681525050848381518110611b2d57611b2c614844565b5b60200260200101518160400181905250838381518110611b5057611b4f614844565b5b60200260200101518160600181905250600873__$b934d7a2ff225b6f1b2c7d937c74accd16$__6397e4b5319091888681518110611b9157611b90614844565b5b6020026020010151846040518463ffffffff1660e01b8152600401611bb8939291906147c2565b60006040518083038186803b158015611bd057600080fd5b505af4158015611be4573d6000803e3d6000fd5b5050505050508080611bf5906148a2565b915050611990565b50600080600080611c0c611368565b93509350935093507f7b01d274ab7dfabdb6861009ab11db6dbdb90b234b9700455f102167cc23857484604051611c439190613d5b565b60405180910390a17f18fe5671cbd203456560569df08e5b522f42274186d227d73075b536b44c191f83604051611c7a9190614800565b60405180910390a17fc2a08ceed543b5e0780a37b50db54f6f236196f36c61dc89efeea12ae74a505482604051611cb19190614822565b60405180910390a17f61e6202ae9d2a653cefd53cea58300fae45dce6c6516c61297659273ac425be881604051611ce89190614822565b60405180910390a150505050505050565b611d0b611d04610717565b8383612d28565b5050565b611d20611d1a610717565b836126e8565b611d5f576040517f08c379a0000000000000000000000000000000000000000000000000000000008152600401611d56906144f4565b60405180910390fd5b6000600873__$b934d7a2ff225b6f1b2c7d937c74accd16$__6382e930c59091856040518363ffffffff1660e01b8152600401611d9d92919061452a565b600060405180830381865af4158015611dba573d6000803e3d6000fd5b505050506040513d6000823e3d601f19601f82011682018060405250810190611de391906146a7565b9050611ded6132ad565b8381600001818152505084816020019073ffffffffffffffffffffffffffffffffffffffff16908173ffffffffffffffffffffffffffffffffffffffff16815250508160400151816040018190525081606001518160600181905250600873__$b934d7a2ff225b6f1b2c7d937c74accd16$__6397e4b531909186846040518463ffffffff1660e01b8152600401611e87939291906147c2565b60006040518083038186803b158015611e9f57600080fd5b505af4158015611eb3573d6000803e3d6000fd5b50505050611ec386868686612e94565b600080600080611ed1611368565b93509350935093507f7b01d274ab7dfabdb6861009ab11db6dbdb90b234b9700455f102167cc23857484604051611f089190613d5b565b60405180910390a17f18fe5671cbd203456560569df08e5b522f42274186d227d73075b536b44c191f83604051611f3f9190614800565b60405180910390a17fc2a08ceed543b5e0780a37b50db54f6f236196f36c61dc89efeea12ae74a505482604051611f769190614822565b60405180910390a17f61e6202ae9d2a653cefd53cea58300fae45dce6c6516c61297659273ac425be881604051611fad9190614822565b60405180910390a150505050505050505050565b6060611fcc826125c3565b61200b576040517f08c379a000000000000000000000000000000000000000000000000000000000815260040161200290614d58565b60405180910390fd5b600060066000848152602001908152602001600020805461202b90614157565b80601f016020809104026020016040519081016040528092919081815260200182805461205790614157565b80156120a45780601f10612079576101008083540402835291602001916120a4565b820191906000526020600020905b81548152906001019060200180831161208757829003601f168201915b5050505050905060006120b5612ef0565b905060008151036120ca57819250505061210d565b6000825111156120ff5780826040516020016120e7929190614db4565b6040516020818303038152906040529250505061210d565b61210884612f07565b925050505b919050565b61211a610717565b73ffffffffffffffffffffffffffffffffffffffff16612138611880565b73ffffffffffffffffffffffffffffffffffffffff161461218e576040517f08c379a00000000000000000000000000000000000000000000000000000000081526004016121859061438a565b60405180910390fd5b60001515600c60009054906101000a900460ff161515146121ae57600080fd5b60005b818110156122cb576121c585600b54612a21565b6121d1600b5485612bee565b6121d96132ad565b600b5481600001818152505085816020019073ffffffffffffffffffffffffffffffffffffffff16908173ffffffffffffffffffffffffffffffffffffffff1681525050838160400181905250848160600181905250600873__$b934d7a2ff225b6f1b2c7d937c74accd16$__6397e4b5319091600b54846040518463ffffffff1660e01b815260040161226f939291906147c2565b60006040518083038186803b15801561228757600080fd5b505af415801561229b573d6000803e3d6000fd5b50505050600b60008154809291906122b2906148a2565b91905055505080806122c3906148a2565b9150506121b1565b506000806000806122da611368565b93509350935093507f7b01d274ab7dfabdb6861009ab11db6dbdb90b234b9700455f102167cc238574846040516123119190613d5b565b60405180910390a17f18fe5671cbd203456560569df08e5b522f42274186d227d73075b536b44c191f836040516123489190614800565b60405180910390a17fc2a08ceed543b5e0780a37b50db54f6f236196f36c61dc89efeea12ae74a50548260405161237f9190614822565b60405180910390a17f61e6202ae9d2a653cefd53cea58300fae45dce6c6516c61297659273ac425be8816040516123b69190614822565b60405180910390a15050505050505050565b6000600560008473ffffffffffffffffffffffffffffffffffffffff1673ffffffffffffffffffffffffffffffffffffffff16815260200190815260200160002060008373ffffffffffffffffffffffffffffffffffffffff1673ffffffffffffffffffffffffffffffffffffffff16815260200190815260200160002060009054906101000a900460ff16905092915050565b612464610717565b73ffffffffffffffffffffffffffffffffffffffff16612482611880565b73ffffffffffffffffffffffffffffffffffffffff16146124d8576040517f08c379a00000000000000000000000000000000000000000000000000000000081526004016124cf9061438a565b60405180910390fd5b600073ffffffffffffffffffffffffffffffffffffffff168173ffffffffffffffffffffffffffffffffffffffff1603612547576040517f08c379a000000000000000000000000000000000000000000000000000000000815260040161253e90614e4a565b60405180910390fd5b61255081612c62565b50565b600b5481565b60007f01ffc9a7000000000000000000000000000000000000000000000000000000007bffffffffffffffffffffffffffffffffffffffffffffffffffffffff1916827bffffffffffffffffffffffffffffffffffffffffffffffffffffffff1916149050919050565b60008073ffffffffffffffffffffffffffffffffffffffff166002600084815260200190815260200160002060009054906101000a900473ffffffffffffffffffffffffffffffffffffffff1673ffffffffffffffffffffffffffffffffffffffff1614159050919050565b816004600083815260200190815260200160002060006101000a81548173ffffffffffffffffffffffffffffffffffffffff021916908373ffffffffffffffffffffffffffffffffffffffff160217905550808273ffffffffffffffffffffffffffffffffffffffff166126a283611200565b73ffffffffffffffffffffffffffffffffffffffff167f8c5be1e5ebec7d5bd14f71427d1e84f3dd0314c0f7b2291e5b200ac8c7c3b92560405160405180910390a45050565b60006126f3826125c3565b612732576040517f08c379a000000000000000000000000000000000000000000000000000000000815260040161272990614edc565b60405180910390fd5b600061273d83611200565b90508073ffffffffffffffffffffffffffffffffffffffff168473ffffffffffffffffffffffffffffffffffffffff1614806127ac57508373ffffffffffffffffffffffffffffffffffffffff1661279484610893565b73ffffffffffffffffffffffffffffffffffffffff16145b806127bd57506127bc81856123c8565b5b91505092915050565b8273ffffffffffffffffffffffffffffffffffffffff166127e682611200565b73ffffffffffffffffffffffffffffffffffffffff161461283c576040517f08c379a000000000000000000000000000000000000000000000000000000000815260040161283390614f6e565b60405180910390fd5b600073ffffffffffffffffffffffffffffffffffffffff168273ffffffffffffffffffffffffffffffffffffffff16036128ab576040517f08c379a00000000000000000000000000000000000000000000000000000000081526004016128a290615000565b60405180910390fd5b6128b6838383612fae565b6128c160008261262f565b6001600360008573ffffffffffffffffffffffffffffffffffffffff1673ffffffffffffffffffffffffffffffffffffffff16815260200190815260200160002060008282546129119190614b42565b925050819055506001600360008473ffffffffffffffffffffffffffffffffffffffff1673ffffffffffffffffffffffffffffffffffffffff16815260200190815260200160002060008282546129689190615020565b92505081905550816002600083815260200190815260200160002060006101000a81548173ffffffffffffffffffffffffffffffffffffffff021916908373ffffffffffffffffffffffffffffffffffffffff160217905550808273ffffffffffffffffffffffffffffffffffffffff168473ffffffffffffffffffffffffffffffffffffffff167fddf252ad1be2c89b69c2b068fc378daa952ba7f163c4a11628f55a4df523b3ef60405160405180910390a4505050565b600073ffffffffffffffffffffffffffffffffffffffff168273ffffffffffffffffffffffffffffffffffffffff1603612a90576040517f08c379a0000000000000000000000000000000000000000000000000000000008152600401612a87906150c2565b60405180910390fd5b612a99816125c3565b15612ad9576040517f08c379a0000000000000000000000000000000000000000000000000000000008152600401612ad09061512e565b60405180910390fd5b612ae560008383612fae565b6001600360008473ffffffffffffffffffffffffffffffffffffffff1673ffffffffffffffffffffffffffffffffffffffff1681526020019081526020016000206000828254612b359190615020565b92505081905550816002600083815260200190815260200160002060006101000a81548173ffffffffffffffffffffffffffffffffffffffff021916908373ffffffffffffffffffffffffffffffffffffffff160217905550808273ffffffffffffffffffffffffffffffffffffffff16600073ffffffffffffffffffffffffffffffffffffffff167fddf252ad1be2c89b69c2b068fc378daa952ba7f163c4a11628f55a4df523b3ef60405160405180910390a45050565b612bf7826125c3565b612c36576040517f08c379a0000000000000000000000000000000000000000000000000000000008152600401612c2d906151c0565b60405180910390fd5b80600660008481526020019081526020016000209080519060200190612c5d9291906132eb565b505050565b6000600760009054906101000a900473ffffffffffffffffffffffffffffffffffffffff16905081600760006101000a81548173ffffffffffffffffffffffffffffffffffffffff021916908373ffffffffffffffffffffffffffffffffffffffff1602179055508173ffffffffffffffffffffffffffffffffffffffff168173ffffffffffffffffffffffffffffffffffffffff167f8be0079c531659141344cd1fd0a4f28419497f9722a3daafe3b4186f6b6457e060405160405180910390a35050565b8173ffffffffffffffffffffffffffffffffffffffff168373ffffffffffffffffffffffffffffffffffffffff1603612d96576040517f08c379a0000000000000000000000000000000000000000000000000000000008152600401612d8d9061522c565b60405180910390fd5b80600560008573ffffffffffffffffffffffffffffffffffffffff1673ffffffffffffffffffffffffffffffffffffffff16815260200190815260200160002060008473ffffffffffffffffffffffffffffffffffffffff1673ffffffffffffffffffffffffffffffffffffffff16815260200190815260200160002060006101000a81548160ff0219169083151502179055508173ffffffffffffffffffffffffffffffffffffffff168373ffffffffffffffffffffffffffffffffffffffff167f17307eab39ab6107e8899845ad3d59bd9653f200f220920489ca2b5937696c3183604051612e8791906134e6565b60405180910390a3505050565b612e9f8484846127c6565b612eab84848484612fb3565b612eea576040517f08c379a0000000000000000000000000000000000000000000000000000000008152600401612ee1906152be565b60405180910390fd5b50505050565b606060405180602001604052806000815250905090565b6060612f12826125c3565b612f51576040517f08c379a0000000000000000000000000000000000000000000000000000000008152600401612f4890615350565b60405180910390fd5b6000612f5b612ef0565b90506000815111612f7b5760405180602001604052806000815250612fa6565b80612f858461313a565b604051602001612f96929190614db4565b6040516020818303038152906040525b915050919050565b505050565b6000612fd48473ffffffffffffffffffffffffffffffffffffffff1661329a565b1561312d578373ffffffffffffffffffffffffffffffffffffffff1663150b7a02612ffd610717565b8786866040518563ffffffff1660e01b815260040161301f94939291906153c5565b6020604051808303816000875af192505050801561305b57506040513d601f19601f820116820180604052508101906130589190615426565b60015b6130dd573d806000811461308b576040519150601f19603f3d011682016040523d82523d6000602084013e613090565b606091505b5060008151036130d5576040517f08c379a00000000000000000000000000000000000000000000000000000000081526004016130cc906152be565b60405180910390fd5b805181602001fd5b63150b7a0260e01b7bffffffffffffffffffffffffffffffffffffffffffffffffffffffff1916817bffffffffffffffffffffffffffffffffffffffffffffffffffffffff191614915050613132565b600190505b949350505050565b606060008203613181576040518060400160405280600181526020017f30000000000000000000000000000000000000000000000000000000000000008152509050613295565b600082905060005b600082146131b357808061319c906148a2565b915050600a826131ac9190615482565b9150613189565b60008167ffffffffffffffff8111156131cf576131ce613724565b5b6040519080825280601f01601f1916602001820160405280156132015781602001600182028036833780820191505090505b5090505b6000851461328e5760018261321a9190614b42565b9150600a8561322991906154b3565b60306132359190615020565b60f81b81838151811061324b5761324a614844565b5b60200101907effffffffffffffffffffffffffffffffffffffffffffffffffffffffffffff1916908160001a905350600a856132879190615482565b9450613205565b8093505050505b919050565b600080823b905060008111915050919050565b604051806080016040528060008152602001600073ffffffffffffffffffffffffffffffffffffffff16815260200160608152602001606081525090565b8280546132f790614157565b90600052602060002090601f0160209004810192826133195760008555613360565b82601f1061333257805160ff1916838001178555613360565b82800160010185558215613360579182015b8281111561335f578251825591602001919060010190613344565b5b50905061336d9190613371565b5090565b5b8082111561338a576000816000905550600101613372565b5090565b6000819050919050565b6133a18161338e565b82525050565b600082825260208201905092915050565b7f46616c6c6261636b2066756e6374696f6e207472696767657265640000000000600082015250565b60006133ee601b836133a7565b91506133f9826133b8565b602082019050919050565b60006040820190506134196000830184613398565b818103602083015261342a816133e1565b905092915050565b6000604051905090565b600080fd5b600080fd5b60007fffffffff0000000000000000000000000000000000000000000000000000000082169050919050565b61347b81613446565b811461348657600080fd5b50565b60008135905061349881613472565b92915050565b6000602082840312156134b4576134b361343c565b5b60006134c284828501613489565b91505092915050565b60008115159050919050565b6134e0816134cb565b82525050565b60006020820190506134fb60008301846134d7565b92915050565b600081519050919050565b60005b8381101561352a57808201518184015260208101905061350f565b83811115613539576000848401525b50505050565b6000601f19601f8301169050919050565b600061355b82613501565b61356581856133a7565b935061357581856020860161350c565b61357e8161353f565b840191505092915050565b600060208201905081810360008301526135a38184613550565b905092915050565b6135b48161338e565b81146135bf57600080fd5b50565b6000813590506135d1816135ab565b92915050565b6000602082840312156135ed576135ec61343c565b5b60006135fb848285016135c2565b91505092915050565b600073ffffffffffffffffffffffffffffffffffffffff82169050919050565b600061362f82613604565b9050919050565b61363f81613624565b82525050565b600060208201905061365a6000830184613636565b92915050565b61366981613624565b811461367457600080fd5b50565b60008135905061368681613660565b92915050565b600080604083850312156136a3576136a261343c565b5b60006136b185828601613677565b92505060206136c2858286016135c2565b9150509250929050565b6000806000606084860312156136e5576136e461343c565b5b60006136f386828701613677565b935050602061370486828701613677565b9250506040613715868287016135c2565b9150509250925092565b600080fd5b7f4e487b7100000000000000000000000000000000000000000000000000000000600052604160045260246000fd5b61375c8261353f565b810181811067ffffffffffffffff8211171561377b5761377a613724565b5b80604052505050565b600061378e613432565b905061379a8282613753565b919050565b600067ffffffffffffffff8211156137ba576137b9613724565b5b602082029050602081019050919050565b600080fd5b60006137e36137de8461379f565b613784565b90508083825260208201905060208402830185811115613806576138056137cb565b5b835b8181101561382f578061381b88826135c2565b845260208401935050602081019050613808565b5050509392505050565b600082601f83011261384e5761384d61371f565b5b813561385e8482602086016137d0565b91505092915050565b6000806000606084860312156138805761387f61343c565b5b600061388e86828701613677565b935050602061389f86828701613677565b925050604084013567ffffffffffffffff8111156138c0576138bf613441565b5b6138cc86828701613839565b9150509250925092565b60006020820190506138eb6000830184613398565b92915050565b600080fd5b600067ffffffffffffffff82111561391157613910613724565b5b61391a8261353f565b9050602081019050919050565b82818337600083830152505050565b6000613949613944846138f6565b613784565b905082815260208101848484011115613965576139646138f1565b5b613970848285613927565b509392505050565b600082601f83011261398d5761398c61371f565b5b813561399d848260208601613936565b91505092915050565b600080600080608085870312156139c0576139bf61343c565b5b60006139ce87828801613677565b945050602085013567ffffffffffffffff8111156139ef576139ee613441565b5b6139fb87828801613978565b935050604085013567ffffffffffffffff811115613a1c57613a1b613441565b5b613a2887828801613978565b9250506060613a39878288016135c2565b91505092959194509250565b600060208284031215613a5b57613a5a61343c565b5b6000613a6984828501613677565b91505092915050565b600081519050919050565b600082825260208201905092915050565b6000819050602082019050919050565b613aa78161338e565b82525050565b6000613ab98383613a9e565b60208301905092915050565b6000602082019050919050565b6000613add82613a72565b613ae78185613a7d565b9350613af283613a8e565b8060005b83811015613b23578151613b0a8882613aad565b9750613b1583613ac5565b925050600181019050613af6565b5085935050505092915050565b600081519050919050565b600082825260208201905092915050565b6000819050602082019050919050565b613b6581613624565b82525050565b6000613b778383613b5c565b60208301905092915050565b6000602082019050919050565b6000613b9b82613b30565b613ba58185613b3b565b9350613bb083613b4c565b8060005b83811015613be1578151613bc88882613b6b565b9750613bd383613b83565b925050600181019050613bb4565b5085935050505092915050565b600081519050919050565b600082825260208201905092915050565b6000819050602082019050919050565b600082825260208201905092915050565b6000613c3682613501565b613c408185613c1a565b9350613c5081856020860161350c565b613c598161353f565b840191505092915050565b6000613c708383613c2b565b905092915050565b6000602082019050919050565b6000613c9082613bee565b613c9a8185613bf9565b935083602082028501613cac85613c0a565b8060005b85811015613ce85784840389528151613cc98582613c64565b9450613cd483613c78565b925060208a01995050600181019050613cb0565b50829750879550505050505092915050565b60006080820190508181036000830152613d148187613ad2565b90508181036020830152613d288186613b90565b90508181036040830152613d3c8185613c85565b90508181036060830152613d508184613c85565b905095945050505050565b60006020820190508181036000830152613d758184613ad2565b905092915050565b6000608082019050613d926000830187613398565b613d9f6020830186613636565b8181036040830152613db18185613550565b90508181036060830152613dc58184613550565b905095945050505050565b600067ffffffffffffffff821115613deb57613dea613724565b5b602082029050602081019050919050565b6000613e0f613e0a84613dd0565b613784565b90508083825260208201905060208402830185811115613e3257613e316137cb565b5b835b81811015613e7957803567ffffffffffffffff811115613e5757613e5661371f565b5b808601613e648982613978565b85526020850194505050602081019050613e34565b5050509392505050565b600082601f830112613e9857613e9761371f565b5b8135613ea8848260208601613dfc565b91505092915050565b600080600060608486031215613eca57613ec961343c565b5b600084013567ffffffffffffffff811115613ee857613ee7613441565b5b613ef486828701613839565b935050602084013567ffffffffffffffff811115613f1557613f14613441565b5b613f2186828701613e83565b925050604084013567ffffffffffffffff811115613f4257613f41613441565b5b613f4e86828701613e83565b9150509250925092565b613f61816134cb565b8114613f6c57600080fd5b50565b600081359050613f7e81613f58565b92915050565b60008060408385031215613f9b57613f9a61343c565b5b6000613fa985828601613677565b9250506020613fba85828601613f6f565b9150509250929050565b600067ffffffffffffffff821115613fdf57613fde613724565b5b613fe88261353f565b9050602081019050919050565b600061400861400384613fc4565b613784565b905082815260208101848484011115614024576140236138f1565b5b61402f848285613927565b509392505050565b600082601f83011261404c5761404b61371f565b5b813561405c848260208601613ff5565b91505092915050565b6000806000806080858703121561407f5761407e61343c565b5b600061408d87828801613677565b945050602061409e87828801613677565b93505060406140af878288016135c2565b925050606085013567ffffffffffffffff8111156140d0576140cf613441565b5b6140dc87828801614037565b91505092959194509250565b600080604083850312156140ff576140fe61343c565b5b600061410d85828601613677565b925050602061411e85828601613677565b9150509250929050565b7f4e487b7100000000000000000000000000000000000000000000000000000000600052602260045260246000fd5b6000600282049050600182168061416f57607f821691505b60208210810361418257614181614128565b5b50919050565b7f4552433732313a20617070726f76656420717565727920666f72206e6f6e657860008201527f697374656e7420746f6b656e0000000000000000000000000000000000000000602082015250565b60006141e4602c836133a7565b91506141ef82614188565b604082019050919050565b60006020820190508181036000830152614213816141d7565b9050919050565b7f4552433732313a20617070726f76616c20746f2063757272656e74206f776e6560008201527f7200000000000000000000000000000000000000000000000000000000000000602082015250565b60006142766021836133a7565b91506142818261421a565b604082019050919050565b600060208201905081810360008301526142a581614269565b9050919050565b7f4552433732313a20617070726f76652063616c6c6572206973206e6f74206f7760008201527f6e6572206e6f7220617070726f76656420666f7220616c6c0000000000000000602082015250565b60006143086038836133a7565b9150614313826142ac565b604082019050919050565b60006020820190508181036000830152614337816142fb565b9050919050565b7f4f776e61626c653a2063616c6c6572206973206e6f7420746865206f776e6572600082015250565b60006143746020836133a7565b915061437f8261433e565b602082019050919050565b600060208201905081810360008301526143a381614367565b9050919050565b7f4369726375697420627265616b657220686173206265656e2070617573656400600082015250565b60006143e0601f836133a7565b91506143eb826143aa565b602082019050919050565b6000602082019050818103600083015261440f816143d3565b9050919050565b7f4369726375697420627265616b657220686173206265656e20726573756d6564600082015250565b600061444c6020836133a7565b915061445782614416565b602082019050919050565b6000602082019050818103600083015261447b8161443f565b9050919050565b7f4552433732313a207472616e736665722063616c6c6572206973206e6f74206f60008201527f776e6572206e6f7220617070726f766564000000000000000000000000000000602082015250565b60006144de6031836133a7565b91506144e982614482565b604082019050919050565b6000602082019050818103600083015261450d816144d1565b9050919050565b8082525050565b6145248161338e565b82525050565b600060408201905061453f6000830185614514565b61454c602083018461451b565b9392505050565b600080fd5b600080fd5b60008151905061456c816135ab565b92915050565b60008151905061458181613660565b92915050565b600061459a614595846138f6565b613784565b9050828152602081018484840111156145b6576145b56138f1565b5b6145c184828561350c565b509392505050565b600082601f8301126145de576145dd61371f565b5b81516145ee848260208601614587565b91505092915050565b60006080828403121561460d5761460c614553565b5b6146176080613784565b905060006146278482850161455d565b600083015250602061463b84828501614572565b602083015250604082015167ffffffffffffffff81111561465f5761465e614558565b5b61466b848285016145c9565b604083015250606082015167ffffffffffffffff81111561468f5761468e614558565b5b61469b848285016145c9565b60608301525092915050565b6000602082840312156146bd576146bc61343c565b5b600082015167ffffffffffffffff8111156146db576146da613441565b5b6146e7848285016145f7565b91505092915050565b6146f98161338e565b82525050565b61470881613624565b82525050565b600082825260208201905092915050565b600061472a82613501565b614734818561470e565b935061474481856020860161350c565b61474d8161353f565b840191505092915050565b600060808301600083015161477060008601826146f0565b50602083015161478360208601826146ff565b506040830151848203604086015261479b828261471f565b915050606083015184820360608601526147b5828261471f565b9150508091505092915050565b60006060820190506147d76000830186614514565b6147e4602083018561451b565b81810360408301526147f68184614758565b9050949350505050565b6000602082019050818103600083015261481a8184613b90565b905092915050565b6000602082019050818103600083015261483c8184613c85565b905092915050565b7f4e487b7100000000000000000000000000000000000000000000000000000000600052603260045260246000fd5b7f4e487b7100000000000000000000000000000000000000000000000000000000600052601160045260246000fd5b60006148ad8261338e565b91507fffffffffffffffffffffffffffffffffffffffffffffffffffffffffffffffff82036148df576148de614873565b5b600182019050919050565b60006020820190506148ff6000830184614514565b92915050565b60006020828403121561491b5761491a61343c565b5b60006149298482850161455d565b91505092915050565b600061493d8261338e565b91506149488361338e565b9250817fffffffffffffffffffffffffffffffffffffffffffffffffffffffffffffffff048311821515161561498157614980614873565b5b828202905092915050565b7f4e6f7420656e6f756768206d6f6e657920676976656e2e20506179206d6f726560008201527f20746f2042494c4c592e203120475745492070657220506978656c2e00000000602082015250565b60006149e8603c836133a7565b91506149f38261498c565b604082019050919050565b60006020820190508181036000830152614a17816149db565b9050919050565b7f4552433732313a206f776e657220717565727920666f72206e6f6e657869737460008201527f656e7420746f6b656e0000000000000000000000000000000000000000000000602082015250565b6000614a7a6029836133a7565b9150614a8582614a1e565b604082019050919050565b60006020820190508181036000830152614aa981614a6d565b9050919050565b7f4552433732313a2062616c616e636520717565727920666f7220746865207a6560008201527f726f206164647265737300000000000000000000000000000000000000000000602082015250565b6000614b0c602a836133a7565b9150614b1782614ab0565b604082019050919050565b60006020820190508181036000830152614b3b81614aff565b9050919050565b6000614b4d8261338e565b9150614b588361338e565b925082821015614b6b57614b6a614873565b5b828203905092915050565b7f42696c6c79426c6f636b733a206d69736d617463686564206c656e677468207760008201527f68656e2065646974696e6720636f6c6f72206d657461646174612e204d75737460208201527f20626520312d746f2d312e000000000000000000000000000000000000000000604082015250565b6000614bf8604b836133a7565b9150614c0382614b76565b606082019050919050565b60006020820190508181036000830152614c2781614beb565b9050919050565b7f42696c6c79426c6f636b733a20796f7520646f206e6f7420617070656172207460008201527f6f20626520746865206f776e6572206f6620746869732042696c6c792e20506c60208201527f65617365207573652070726f7065722077616c6c65742e000000000000000000604082015250565b6000614cb06057836133a7565b9150614cbb82614c2e565b606082019050919050565b60006020820190508181036000830152614cdf81614ca3565b9050919050565b7f45524337323155524953746f726167653a2055524920717565727920666f722060008201527f6e6f6e6578697374656e7420746f6b656e000000000000000000000000000000602082015250565b6000614d426031836133a7565b9150614d4d82614ce6565b604082019050919050565b60006020820190508181036000830152614d7181614d35565b9050919050565b600081905092915050565b6000614d8e82613501565b614d988185614d78565b9350614da881856020860161350c565b80840191505092915050565b6000614dc08285614d83565b9150614dcc8284614d83565b91508190509392505050565b7f4f776e61626c653a206e6577206f776e657220697320746865207a65726f206160008201527f6464726573730000000000000000000000000000000000000000000000000000602082015250565b6000614e346026836133a7565b9150614e3f82614dd8565b604082019050919050565b60006020820190508181036000830152614e6381614e27565b9050919050565b7f4552433732313a206f70657261746f7220717565727920666f72206e6f6e657860008201527f697374656e7420746f6b656e0000000000000000000000000000000000000000602082015250565b6000614ec6602c836133a7565b9150614ed182614e6a565b604082019050919050565b60006020820190508181036000830152614ef581614eb9565b9050919050565b7f4552433732313a207472616e73666572206f6620746f6b656e2074686174206960008201527f73206e6f74206f776e0000000000000000000000000000000000000000000000602082015250565b6000614f586029836133a7565b9150614f6382614efc565b604082019050919050565b60006020820190508181036000830152614f8781614f4b565b9050919050565b7f4552433732313a207472616e7366657220746f20746865207a65726f2061646460008201527f7265737300000000000000000000000000000000000000000000000000000000602082015250565b6000614fea6024836133a7565b9150614ff582614f8e565b604082019050919050565b6000602082019050818103600083015261501981614fdd565b9050919050565b600061502b8261338e565b91506150368361338e565b9250827fffffffffffffffffffffffffffffffffffffffffffffffffffffffffffffffff0382111561506b5761506a614873565b5b828201905092915050565b7f4552433732313a206d696e7420746f20746865207a65726f2061646472657373600082015250565b60006150ac6020836133a7565b91506150b782615076565b602082019050919050565b600060208201905081810360008301526150db8161509f565b9050919050565b7f4552433732313a20746f6b656e20616c7265616479206d696e74656400000000600082015250565b6000615118601c836133a7565b9150615123826150e2565b602082019050919050565b600060208201905081810360008301526151478161510b565b9050919050565b7f45524337323155524953746f726167653a2055524920736574206f66206e6f6e60008201527f6578697374656e7420746f6b656e000000000000000000000000000000000000602082015250565b60006151aa602e836133a7565b91506151b58261514e565b604082019050919050565b600060208201905081810360008301526151d98161519d565b9050919050565b7f4552433732313a20617070726f766520746f2063616c6c657200000000000000600082015250565b60006152166019836133a7565b9150615221826151e0565b602082019050919050565b6000602082019050818103600083015261524581615209565b9050919050565b7f4552433732313a207472616e7366657220746f206e6f6e20455243373231526560008201527f63656976657220696d706c656d656e7465720000000000000000000000000000602082015250565b60006152a86032836133a7565b91506152b38261524c565b604082019050919050565b600060208201905081810360008301526152d78161529b565b9050919050565b7f4552433732314d657461646174613a2055524920717565727920666f72206e6f60008201527f6e6578697374656e7420746f6b656e0000000000000000000000000000000000602082015250565b600061533a602f836133a7565b9150615345826152de565b604082019050919050565b600060208201905081810360008301526153698161532d565b9050919050565b600081519050919050565b600082825260208201905092915050565b600061539782615370565b6153a1818561537b565b93506153b181856020860161350c565b6153ba8161353f565b840191505092915050565b60006080820190506153da6000830187613636565b6153e76020830186613636565b6153f46040830185613398565b8181036060830152615406818461538c565b905095945050505050565b60008151905061542081613472565b92915050565b60006020828403121561543c5761543b61343c565b5b600061544a84828501615411565b91505092915050565b7f4e487b7100000000000000000000000000000000000000000000000000000000600052601260045260246000fd5b600061548d8261338e565b91506154988361338e565b9250826154a8576154a7615453565b5b828204905092915050565b60006154be8261338e565b91506154c98361338e565b9250826154d9576154d8615453565b5b82820690509291505056fea2646970667358221220d7dfeb9931ce439818d8efc70394c2734e7326bae8bcbfb4d5b4f2e6c767f0e064736f6c634300080d0033",
  "linkReferences": {
    "contracts/PixelMap.sol": {
      "PixelMap": [
        {
          "length": 20,
          "start": 3761
        },
        {
          "length": 20,
          "start": 3993
        },
        {
          "length": 20,
          "start": 4459
        },
        {
          "length": 20,
          "start": 4952
        },
        {
          "length": 20,
          "start": 5729
        },
        {
          "length": 20,
          "start": 6191
        },
        {
          "length": 20,
          "start": 6838
        },
        {
          "length": 20,
          "start": 7308
        },
        {
          "length": 20,
          "start": 7761
        },
        {
          "length": 20,
          "start": 8274
        },
        {
          "length": 20,
          "start": 8506
        },
        {
          "length": 20,
          "start": 9504
        }
      ]
    }
  },
  "deployedLinkReferences": {
    "contracts/PixelMap.sol": {
      "PixelMap": [
        {
          "length": 20,
          "start": 3012
        },
        {
          "length": 20,
          "start": 3244
        },
        {
          "length": 20,
          "start": 3710
        },
        {
          "length": 20,
          "start": 4203
        },
        {
          "length": 20,
          "start": 4980
        },
        {
          "length": 20,
          "start": 5442
        },
        {
          "length": 20,
          "start": 6089
        },
        {
          "length": 20,
          "start": 6559
        },
        {
          "length": 20,
          "start": 7012
        },
        {
          "length": 20,
          "start": 7525
        },
        {
          "length": 20,
          "start": 7757
        },
        {
          "length": 20,
          "start": 8755
        }
      ]
    }
  }
}